{
  "contractName": "StockTransaction",
  "abi": [
    {
      "anonymous": false,
      "inputs": [
        {
          "indexed": true,
          "internalType": "address",
          "name": "buyer",
          "type": "address"
        },
        {
          "indexed": false,
          "internalType": "string",
          "name": "stockSymbol",
          "type": "string"
        },
        {
          "indexed": false,
          "internalType": "uint256",
          "name": "quantity",
          "type": "uint256"
        },
        {
          "indexed": false,
          "internalType": "uint256",
          "name": "price",
          "type": "uint256"
        },
        {
          "indexed": false,
          "internalType": "uint256",
          "name": "timestamp",
          "type": "uint256"
        }
      ],
      "name": "NewTransaction",
      "type": "event"
    },
    {
      "inputs": [
        {
          "internalType": "uint256",
          "name": "",
          "type": "uint256"
        }
      ],
      "name": "transactions",
      "outputs": [
        {
          "internalType": "address",
          "name": "buyer",
          "type": "address"
        },
        {
          "internalType": "string",
          "name": "stockSymbol",
          "type": "string"
        },
        {
          "internalType": "uint256",
          "name": "quantity",
          "type": "uint256"
        },
        {
          "internalType": "uint256",
          "name": "price",
          "type": "uint256"
        },
        {
          "internalType": "uint256",
          "name": "timestamp",
          "type": "uint256"
        }
      ],
      "stateMutability": "view",
      "type": "function",
      "constant": true
    },
    {
      "inputs": [
        {
          "internalType": "string",
          "name": "_symbol",
          "type": "string"
        },
        {
          "internalType": "uint256",
          "name": "_quantity",
          "type": "uint256"
        },
        {
          "internalType": "uint256",
          "name": "_price",
          "type": "uint256"
        }
      ],
      "name": "buyStock",
      "outputs": [],
      "stateMutability": "nonpayable",
      "type": "function"
    },
    {
      "inputs": [
        {
          "internalType": "uint256",
          "name": "index",
          "type": "uint256"
        }
      ],
      "name": "getTransaction",
      "outputs": [
        {
          "components": [
            {
              "internalType": "address",
              "name": "buyer",
              "type": "address"
            },
            {
              "internalType": "string",
              "name": "stockSymbol",
              "type": "string"
            },
            {
              "internalType": "uint256",
              "name": "quantity",
              "type": "uint256"
            },
            {
              "internalType": "uint256",
              "name": "price",
              "type": "uint256"
            },
            {
              "internalType": "uint256",
              "name": "timestamp",
              "type": "uint256"
            }
          ],
          "internalType": "struct StockTransaction.Transaction",
          "name": "",
          "type": "tuple"
        }
      ],
      "stateMutability": "view",
      "type": "function",
      "constant": true
    },
    {
      "inputs": [],
      "name": "getTransactionCount",
      "outputs": [
        {
          "internalType": "uint256",
          "name": "",
          "type": "uint256"
        }
      ],
      "stateMutability": "view",
      "type": "function",
      "constant": true
    }
  ],
  "bytecode": "0x608060405234801561001057600080fd5b50610b33806100206000396000f3fe608060405234801561001057600080fd5b506004361061004c5760003560e01c80632e7700f01461005157806333ea3dc81461006f57806365453dbf1461009f5780639ace38c2146100bb575b600080fd5b6100596100ef565b604051610066919061091e565b60405180910390f35b610089600480360381019061008491906106a9565b6100fb565b60405161009691906108fc565b60405180910390f35b6100b960048036038101906100b49190610642565b6102aa565b005b6100d560048036038101906100d091906106a9565b6103ef565b6040516100e6959493929190610836565b60405180910390f35b60008080549050905090565b6101036104dd565b600080549050821061014a576040517f08c379a0000000000000000000000000000000000000000000000000000000008152600401610141906108dc565b60405180910390fd5b60008281548110610184577f4e487b7100000000000000000000000000000000000000000000000000000000600052603260045260246000fd5b90600052602060002090600502016040518060a00160405290816000820160009054906101000a900473ffffffffffffffffffffffffffffffffffffffff1673ffffffffffffffffffffffffffffffffffffffff1673ffffffffffffffffffffffffffffffffffffffff16815260200160018201805461020390610a45565b80601f016020809104026020016040519081016040528092919081815260200182805461022f90610a45565b801561027c5780601f106102515761010080835404028352916020019161027c565b820191906000526020600020905b81548152906001019060200180831161025f57829003601f168201915b5050505050815260200160028201548152602001600382015481526020016004820154815250509050919050565b60006040518060a001604052803373ffffffffffffffffffffffffffffffffffffffff16815260200185815260200184815260200183815260200142815250908060018154018082558091505060019003906000526020600020906005020160009091909190915060008201518160000160006101000a81548173ffffffffffffffffffffffffffffffffffffffff021916908373ffffffffffffffffffffffffffffffffffffffff1602179055506020820151816001019080519060200190610375929190610522565b5060408201518160020155606082015181600301556080820151816004015550503373ffffffffffffffffffffffffffffffffffffffff167f86838d7a35ae94932018bed8755acf60a09be6a8a3d0449fad61117b6d4d1869848484426040516103e29493929190610890565b60405180910390a2505050565b600081815481106103ff57600080fd5b90600052602060002090600502016000915090508060000160009054906101000a900473ffffffffffffffffffffffffffffffffffffffff169080600101805461044890610a45565b80601f016020809104026020016040519081016040528092919081815260200182805461047490610a45565b80156104c15780601f10610496576101008083540402835291602001916104c1565b820191906000526020600020905b8154815290600101906020018083116104a457829003601f168201915b5050505050908060020154908060030154908060040154905085565b6040518060a00160405280600073ffffffffffffffffffffffffffffffffffffffff168152602001606081526020016000815260200160008152602001600081525090565b82805461052e90610a45565b90600052602060002090601f0160209004810192826105505760008555610597565b82601f1061056957805160ff1916838001178555610597565b82800160010185558215610597579182015b8281111561059657825182559160200191906001019061057b565b5b5090506105a491906105a8565b5090565b5b808211156105c15760008160009055506001016105a9565b5090565b60006105d86105d38461096a565b610939565b9050828152602081018484840111156105f057600080fd5b6105fb848285610a03565b509392505050565b600082601f83011261061457600080fd5b81356106248482602086016105c5565b91505092915050565b60008135905061063c81610ae6565b92915050565b60008060006060848603121561065757600080fd5b600084013567ffffffffffffffff81111561067157600080fd5b61067d86828701610603565b935050602061068e8682870161062d565b925050604061069f8682870161062d565b9150509250925092565b6000602082840312156106bb57600080fd5b60006106c98482850161062d565b91505092915050565b6106db816109c7565b82525050565b6106ea816109c7565b82525050565b60006106fb8261099a565b61070581856109a5565b9350610715818560208601610a12565b61071e81610ad5565b840191505092915050565b60006107348261099a565b61073e81856109b6565b935061074e818560208601610a12565b61075781610ad5565b840191505092915050565b600061076f600d836109b6565b91507f496e76616c696420696e646578000000000000000000000000000000000000006000830152602082019050919050565b600060a0830160008301516107ba60008601826106d2565b50602083015184820360208601526107d282826106f0565b91505060408301516107e76040860182610818565b5060608301516107fa6060860182610818565b50608083015161080d6080860182610818565b508091505092915050565b610821816109f9565b82525050565b610830816109f9565b82525050565b600060a08201905061084b60008301886106e1565b818103602083015261085d8187610729565b905061086c6040830186610827565b6108796060830185610827565b6108866080830184610827565b9695505050505050565b600060808201905081810360008301526108aa8187610729565b90506108b96020830186610827565b6108c66040830185610827565b6108d36060830184610827565b95945050505050565b600060208201905081810360008301526108f581610762565b9050919050565b6000602082019050818103600083015261091681846107a2565b905092915050565b60006020820190506109336000830184610827565b92915050565b6000604051905081810181811067ffffffffffffffff821117156109605761095f610aa6565b5b8060405250919050565b600067ffffffffffffffff82111561098557610984610aa6565b5b601f19601f8301169050602081019050919050565b600081519050919050565b600082825260208201905092915050565b600082825260208201905092915050565b60006109d2826109d9565b9050919050565b600073ffffffffffffffffffffffffffffffffffffffff82169050919050565b6000819050919050565b82818337600083830152505050565b60005b83811015610a30578082015181840152602081019050610a15565b83811115610a3f576000848401525b50505050565b60006002820490506001821680610a5d57607f821691505b60208210811415610a7157610a70610a77565b5b50919050565b7f4e487b7100000000000000000000000000000000000000000000000000000000600052602260045260246000fd5b7f4e487b7100000000000000000000000000000000000000000000000000000000600052604160045260246000fd5b6000601f19601f8301169050919050565b610aef816109f9565b8114610afa57600080fd5b5056fea26469706673582212200ee92e175ba065a97ebdc2755fad1175e949c5c556af34b539fccb95f79690e464736f6c63430008000033",
  "immutableReferences": {},
  "source": "// SPDX-License-Identifier: MIT\r\npragma solidity ^0.8.0;\r\n\r\ncontract StockTransaction {\r\n    struct Transaction {\r\n        address buyer;\r\n        string stockSymbol;\r\n        uint256 quantity;\r\n        uint256 price;\r\n        uint256 timestamp;\r\n    }\r\n\r\n    Transaction[] public transactions;\r\n\r\n    event NewTransaction(\r\n        address indexed buyer,\r\n        string stockSymbol,\r\n        uint256 quantity,\r\n        uint256 price,\r\n        uint256 timestamp\r\n    );\r\n\r\n    function buyStock(string memory _symbol, uint256 _quantity, uint256 _price) public {\r\n        transactions.push(Transaction(msg.sender, _symbol, _quantity, _price, block.timestamp));\r\n        emit NewTransaction(msg.sender, _symbol, _quantity, _price, block.timestamp);\r\n    }\r\n\r\n    function getTransaction(uint256 index) public view returns (Transaction memory) {\r\n        require(index < transactions.length, \"Invalid index\");\r\n        return transactions[index];\r\n    }\r\n\r\n    function getTransactionCount() public view returns (uint256) {\r\n        return transactions.length;\r\n    }\r\n}\r\n",
  "sourcePath": "C:\\Users\\kk673\\OneDrive\\Desktop\\codeKshetra\\GroMore\\contracts\\StockTransaction.sol",
  "compiler": {
    "name": "solc",
    "version": "0.8.0+commit.c7dfd78e.Emscripten.clang"
  },
  "schemaVersion": "3.4.16",
  "updatedAt": "2025-02-21T18:31:25.653Z",
  "networkType": "ethereum",
  "devdoc": {
    "kind": "dev",
    "methods": {},
    "version": 1
  },
  "userdoc": {
    "kind": "user",
    "methods": {},
    "version": 1
  }
}